:020000040000FA
:1000000040280020F9020000010300000303000063
:1000100005030000070300000903000000000000C2
:100020000000000000000000000000000B030000C2
:100030000D030000000000000F030000110300008A
:10004000590500001303000015090000D505000044
:10005000E505000013030000A103000013030000E6
:100060001303000013030000130300001303000038
:100070001303000013030000130300001303000028
:1000800013030000B1050000130300001303000078
:10009000F505000013030000130300001303000024
:1000A00013030000130300001303000013030000F8
:1000B0001303000013030000000000000000000014
:1000C00013030000130300001303000013030000D8
:1000D00013030000130300001303000000000000DE
:1000E0000000000000000000000000000000000010
:1000F0000000000000000000000000000000000000
:1001000000000000000000000000000000000000EF
:1001100000000000000000000000000000000000DF
:1001200000000000000000000000000000000000CF
:1001300000000000000000000000000000000000BF
:1001400000000000000000000000000000000000AF
:10015000000000000000000000000000000000009F
:10016000000000000000000000000000000000008F
:10017000000000000000000000000000000000007F
:10018000000000000000000000000000000000006F
:10019000000000000000000000000000000000005F
:1001A000000000000000000000000000000000004F
:1001B000000000000000000000000000000000003F
:1001C000000000000000000000000000000000002F
:1001D000000000000000000000000000000000001F
:1001E000000000000000000000000000000000000F
:1001F00000000000000000000000000000000000FF
:10020000DFF80CD000F0BAF800480047D112000027
:100210004028002030B4044654E8000F0D4644E85E
:100220000053002BF8D1156030BC704730B4044641
:1002300054E8000F40EA010544E80053002BF7D1D1
:10024000156030BC704730B4044654E8000F00EA33
:10025000010544E80053002BF7D1156030BC70470E
:1002600030B4044654E8000F80EA010544E8005326
:10027000002BF7D1156030BC704730B4044654E809
:10028000000F00EB010544E80053002BF7D1156087
:1002900030BC704730B4044654E8000FA0EB0105B1
:1002A00044E80053002BF7D1156030BC704770B4A0
:1002B00004464FF0000054E8006F0D68AE4207BFDF
:1002C00044E80023012044E800630E60002B1CBFBB
:1002D0000020F0E770BC704730B4044654E8000FCB
:1002E00088422CBF451A054644E80053002BF5D13F
:1002F000156030BC7047000006488047064800473C
:10030000FEE7FEE7FEE7FEE7FEE7FEE7FEE7FEE7C5
:10031000FEE7FEE7F9050000010200000048704713
:100320005033000040EA01039B0703D009E008C9ED
:10033000121F08C0042AFAD203E011F8013B00F8AA
:10034000013B521EF9D27047D2B201E000F8012BF6
:10035000491EFBD270470022F6E710B513460A4645
:1003600004461946FFF7F0FF204610BD421C10F866
:10037000011B0029FBD1801A70470000064C074D75
:1003800006E0E06840F0010394E807009847103465
:10039000AC42F6D3FFF738FF0834000028340000E1
:1003A0002DE9F043002589B0DFF84091A8464FF4CD
:1003B000807601242F460695304601F0A5FA38B123
:1003C000D9F80403204203D0304601F093FA2543C4
:1003D000361D64007F1CB6B2082FEDD34FF4BE74F7
:1003E000204601F091FA48B1204601F083FA45F029
:1003F000004506AA0121002001F068FA3C4E15F0E4
:10040000FF0F15D0012700242F420DD009EB8401E6
:10041000D1F81005D1F81015C0F3042056F82420A7
:10042000C1F3014102B190477F00641C082CEBD35B
:10043000002D2DDA4FF0FF30CDF808804AE004A9F6
:10044000204601F029F8002822D04FEA95182046CE
:1004500000F07CFC56F820501DB1B8F1030F03D01A
:1004600006E0B8F1030F13D102A9204601F01CF8F1
:100470004FF0A04000EB8400D0F8000706A9C0F3BD
:100480000149204601F008F828B1B9F1020F05D062
:1004900009B0BDE8F083B9F1030FF9D1B8F1030F4A
:1004A00007D1B9F1020F1FD00221204601F0FCF95B
:1004B000012715B141462046A847002FE8D06A46DB
:1004C0000121002001F002FA069900988842DFD04D
:1004D00006900298049096F84450002768B225F0E0
:1004E000C004401CABD1D3E70321DEE7006000402D
:1004F0009001002000F01F0201219140400980007E
:1005000000F1E020C0F88012704700F01F020121C6
:1005100091404009800000F1E020C0F800117047D0
:1005200000F01F02012191404009800000F1E0200D
:10053000C0F8001270474907090E002806DA00F0DB
:100540000F0000F1E02080F8141D704700F1E0205A
:1005500080F800147047000070B54FF48076304684
:1005600000F0ACFF114CB50560B1304600F0ADFFB6
:100570000120C5F80803607920B901206071216865
:10058000002088474FF48276304600F097FF00281D
:100590000AD0304600F099FF0220C5F80803216810
:1005A000BDE870400120084770BD00001400002025
:1005B00007480021C0F84011C0F84411C0F84811A4
:1005C000C0F84C11C0F80011C0F8041102F020BBB3
:1005D000001001400149024802F054BBD80000203D
:1005E0000030004002494FF0402002F04BBB0000B9
:1005F0000C01002002F05EBAF0B5B5480023021DE0
:100600000178101D01254FF0805406290BD1167872
:10061000360708D10678C6F30316032E06D0042E3B
:1006200004D0052E02D0062907D00EE0B4F82463CA
:10063000A84FC6F304263E6002E01678360704D1C0
:100640000678C6F30316032E02D0062904D00FE065
:10065000A24FA14E7E670EE01678360708D10678C5
:10066000C6F30316032E06D0042E04D0052E02D0A6
:10067000062907D00EE0D4F84462994FC6F34236FB
:100680003E6002E01678360704D10678C6F30316FA
:10069000032E02D0062906D011E0924E376827F0CB
:1006A000807737600EE01678360708D10678C6F3F3
:1006B0000316032E06D0042E04D0052E02D00629E0
:1006C0000AD011E04FF08046C6F80C31C6F8103160
:1006D000834E361F336002E01678360704D1067861
:1006E000C6F30316032E02D0062905D00CE07C4F7A
:1006F000032664373E600AE01678360704D1067890
:10070000C6F30316032E02D006290DD014E0764F4F
:1007100005263E60744E78363560734E0836336079
:100720003F263F1D3E6002E01678360704D106786A
:10073000C6F30316052E02D0062957D062E06B4E91
:1007400036686B4F3E60694E361D36683F1D3E6011
:10075000664E083636683F1D3E60644E0C3636687D
:100760003F1D3E60614E103636683F1D3E605F4E55
:10077000143636683F1D3E605C4E183636685C4F56
:1007800020373E60594E1C3636683F1D3E60574E3E
:10079000203636683F1D3E60544E243636683F1D75
:1007A0003E60524E283636683F1D3E604F4E2C3616
:1007B00036683F1D3E604D4E303636684C4F4037F0
:1007C0003E604A4E343636683F1D3E60474E3836EE
:1007D00036683F1D3E60454E3C3636683F1D3E60E4
:1007E000424E403636683F1D3E6002E016783607BE
:1007F00008D10678C6F30316032E06D0042E04D0C3
:10080000052E02D0062907D019E0D4F85812394A2B
:1008100001F04F01116002E0117809070FD1007853
:10082000C0F30310032803D0042801D0052806D103
:1008300031480168C90702D06FF001010160D4F8A6
:100840003001062808D1D4F83401062804D12B48F9
:10085000016841F48061016022487438016841F404
:1008600070010160BFF34F8FBFF36F8F4FF0102106
:10087000D1F80002002803DBD1F80402002822DAB4
:100880001F4A15601F480468002CFCD01524C1F8CD
:1008900000420568002DFCD0C1F80442016800291F
:1008A000FCD0136001680029FCD0BFF34F8F0D48C6
:1008B000F0380168144A01F4E06111430160BFF3AC
:1008C0004F8F00BFFDE7124910480860F0BD0000DF
:1008D000E00F00F0403501400DF0ADBA00C0074018
:1008E0003C050040FCED00E0105600400404001000
:1008F00020C50040E40E0040000400403C170040CA
:1009000004E5014000E401400400FA050090D00332
:10091000B000002001480068004700000C000020E3
:1009200002E008C8121F08C1002AFAD170477047B8
:10093000002001E001C1121F002AFBD17047000016
:1009400072B601F073FA00BF01F0BEF80028FBD1C7
:10095000104C0121208801EB00400FA101F0C0F9EB
:1009600010480068C00700D000BE2088022101EBBB
:1009700000400DA101F0B4F9BFF34F8F0948E438EE
:1009800001680D4A01F4E06111430160BFF34F8F2C
:1009900000BFFDE7D4000020466174616C206572E1
:1009A000726F7200F0ED00E053797374656D207220
:1009B00065736574000000000400FA050EB500219F
:1009C0000091CDE901106A4644F20100FFF7B8FF3B
:1009D0000EBD0000084B9B7823B12AB120B10068FE
:1009E000037C1BB108207047072070470023037465
:1009F0004174426118467047F001002070B501F063
:100A0000A5FF104800240B21047044700E4D817026
:100A100014206C602C706C70FFF76CFD07211420A3
:100A2000FFF789FD1420FFF770FD084804600721D7
:100A30001120FFF780FD0548001F0068A860002016
:100A400070BD0000F00100202000002008150140CA
:100A50002DE9F843DFF8709099F802305BB350B39A
:100A6000052902D20720BDE8F88343691BB3437C04
:100A7000012B22D00027044600258846164628462A
:100A800000F036F8684602F0D9FBC0B101210170D0
:100A90000E4944600968C0E90218C0E904769DF86F
:100AA000000089F80100002000F024F81420FFF76E
:100AB00037FD2846D7E70820D5E70F46DBE70425B2
:100AC000002000F017F8F4E7F001002004150140C1
:100AD0000649897839B130B1416921B100210174E9
:100AE000022102F075B8082070470000F0010020D4
:100AF00000F002B800F008B872B602480168491C5C
:100B0000016070471C00002003490868401E08600F
:100B100000D162B6704700001C0000202DE9F041B2
:100B2000064608680C46411C4FF0A0474FF00105EF
:100B300006D005FA00F1C7F80815206800F0A0FEFD
:100B40006068411C02D0002100F088FE3168A06975
:100B5000C1F82405607D227D31681043C1F86C0521
:100B6000D4E900123068C0F81425C0F80C15207DB7
:100B7000012815D1A068411C02D0002100F06EFEB2
:100B8000E068411C05D08540C7F80855E06800F0D2
:100B900077FED4E902123068C0F80825C0F81015B5
:100BA000BDE8F0812DE9F041064608680C46411C7D
:100BB0004FF0A0474FF0010506D005FA00F1C7F845
:100BC0000815206800F066FE6068411C02D0002114
:100BD00000F04DFE3168A069C1F82405607D217DDB
:100BE00032680843C2F86C05D4E900123068C0F8D6
:100BF0000C15C0F81425207D012815D1A068411CD2
:100C000002D0002100F033FEE068411C05D0854091
:100C1000C7F80855E06800F03DFED4E902123068DC
:100C2000C0F80825C0F81015BDE8F0812DE9F0479F
:100C30000546861C90460F464FF001090020FFF73D
:100C400057FF1B4C20683860D4E90001401AA168A6
:100C500004F21C47081A0EE00121384600F0B4FBEC
:100C600000F0E8FA0146384600F0AEFBD4E9000196
:100C7000401AA168081A401C8642EDD8B8F1000F4E
:100C800003D0052065F3891002E0062065F39F502C
:100C9000A2682168114004EB8101C86020683044DB
:100CA00020600020FFF726FF4846BDE8F0870000DF
:100CB000FC03002030B482680468531C8360A15494
:100CC000D0E901128A4202D330BC00F086BC30BCAD
:100CD00070470000034803C8814201D101207047DA
:100CE00000207047FC03002005494FF0FF32082820
:100CF00041F8202002D3084480F83C2070470000CF
:100D000090010020F0B54FF0FF3512B10023082606
:100D100001E0082309260C4C05E000BF54F82370BD
:100D20007F1C04D05B1CB342F8D32846F0BD2618C4
:100D30005DB286F8245044F82310002AF5D1E1185A
:100D400081F83C00F1E700009001002002490844CE
:100D500090F92400704700009001002070B5084C05
:100D6000050009D010342168002907D008682060E8
:100D7000496828468847F6E70834F4E770BD000064
:100D8000DC010020054A012120B1012805D1917024
:100D9000FFF7E4BF51700020FAE77047DC01002044
:100DA0002DE9F05F26484168F1B3DFF898B00E688E
:100DB0008146DBF8004087688078E11B21F07F45A1
:100DC000ED1CB0B9DFF880804FF48030C8F84403E0
:100DD000C8F804031120FFF78DFB1120FFF795FBE6
:100DE0004FF0010AC8F800A02F2001F06BF989F834
:100DF00002A0B54200D23546124BE8193C3320F030
:100E00007F401860DBF800105A46091B21F07F4133
:100E1000001B20F07F40C91C81420FD91068186068
:100E20002F2001F04FF900E004E0BDE8F05F112051
:100E3000FFF776BBBDE8F05F01F088BDBDE8F09F2D
:100E40002000002004150140001001400348032148
:100E5000008801EB004002A100F042BFD400002056
:100E6000646574656374696F6E5F64656C61795FF6
:100E700074696D656F75745F68616E646C6572002E
:100E800010B50021024800F0AAFA80F3100010BD4E
:100E9000180800200E4910B50A784C780023A242A9
:100EA00012D0521CD2B20A70022A00D10B70084A2A
:100EB0000B780C3252F8232002608868104420F02E
:100EC0007F408860012010BD0360002010BD00003D
:100ED0002000002010B504460A4803220B46008873
:100EE00009A102EB0040224600F0FEFE00F0ECFDFE
:100EF0000028FBD10D2C04D02046BDE81040FFF7A0
:100F00005DBD10BDD4000020657874696E745F65A6
:100F100076656E745F68616E646C65723A70696E56
:100F20003D25642C616374696F6E3D25642E00005D
:100F300070B504460E46112001F028FA104D68687D
:100F4000FFF7C6FD002819D10E480321334600885B
:100F5000224601EB00400CA100F0C6FE0D2C01D092
:100F6000204607E0002240F266616868FFF770FDE6
:100F7000002803D0BDE87040FFF720BD70BD000021
:100F8000C4320000D40000206770696F74655F652B
:100F900076656E745F68616E646C65723A70696ED6
:100FA0003D25642C616374696F6E3D25642E0000DD
:100FB0002DE9FC5F0E008346DDE90C47C6F1000019
:100FC00098469246814600D40846012503E000BFBA
:100FD00090FBFAF06D1C5045FADAA84500D9454659
:100FE00024B1002E01DB780700D5641EB80702D5B6
:100FF000B8F1000F0AD0F80708D13CB1A54205D2DC
:1010000020215846641EFFF755FEF6E7002E02DA4F
:101010004E462D2102E0780703D52B215846FFF7D5
:1010200049FE07F0030002280BD1B8F1000F08D1E8
:101030003CB1A54205D230215846641EFFF73AFE66
:10104000F6E7CDE90047434652463146584602F09E
:1010500049F8BDE8FC9F000070B50D4604460068E5
:101060004FF4887100F0DCFF4FF49071206800F0BD
:10107000D7FF4FF49271206800F0D2FF4FF4A271B5
:10108000206800F0CDFF20681249C0F804132068E2
:101090006907000B40B2090E002806DA00F00F00C5
:1010A00000F1E02080F8141D03E000F1E02080F85A
:1010B000001420680121000B40B200F01F02914093
:1010C0004009800000F1E020C0F88012C0F8001153
:1010D00070BD000010030200024600201268930752
:1010E00002D0530702D47047500714D502F0030012
:1010F000012802D002280CD105E0C2F383100B684E
:10110000801C184404E00223086803EB9252104448
:10111000086001207047086800EB9253C2F3891001
:10112000401CEEE70268134602E08A4204D01268CF
:10113000002AFAD10B600160704700002DE9F047EA
:10114000394E002780463D46DFF8E090D6F804A0EF
:1011500057E003D00446D0F81C8035E099F8002011
:1011600002EB4201521CD2B289F8002009EBC10106
:1011700099F80230091D9A4201D189F80050486857
:101180000A780446012A12D0022A02D0032A3BD14F
:1011900008E001F0EDFC00B10127257434E005748E
:1011A000C06900E070680028F9D170602CE0207CF4
:1011B00050BB88686060C868A0600869E0604869E2
:1011C000A061F07800B165606268B168184B501A90
:1011D00020F07F40984202D2A168084406E0881AB5
:1011E000A16820F07F40814202D9081A206000E007
:1011F000256065600120A56020742046E56101F04E
:1012000099FCB8F10000A4D199F8001099F80100F8
:101210008142A3D117B97168514502D00120BDE8C0
:10122000F0870020FBE7000020000020F0010020F4
:10123000FFFF7F002DE9FF410026234800F0C1F8A1
:101240002148001F074600F0BCF8204C6068009061
:10125000A56800E000986946284004EB80000C3047
:10126000FFF73AFF0028F5D101AA009901EA05032A
:1012700004EB8303491CDB6842F82030401C0091DA
:101280000228F2D3019800F0030001280BD00228B5
:1012900010D10198032101EB90500099BDF80A602C
:1012A00001EB900005E00198BDF80A60C0F38310DF
:1012B00008440090384600F081F808B1009860605A
:1012C00004B03046BDE8F08114080020FC03002083
:1012D0004FF40041002000F065FD08B1FFF76EFB00
:1012E00000F0E4FB00F0FAF808B1FFF767FB00201C
:1012F00000F00EF9FFF782FB08B1FFF75FFB01F08A
:101300004BFF00BF00F0E0FB0028FBD140BF20BF37
:1013100020BFF7E72DE9F047C7880446181D164699
:101320008946B0FBF7F1B0FBF7F207FB12009A1900
:101330003A44D21CB2FBF7F2DDF820A001E02468A9
:10134000491E0029FBD13D1A8846B54216D818E03F
:10135000BAF1000F05D0211809EB08002A46091D33
:1013600004E0204409EB08012A46001DFEF7DAFFDD
:1013700000202468761BA844B74201D9354600E016
:101380003D46002EE4D1BDE8F087000030B50246AE
:1013900059B100F033FD0021074C09E004EB810353
:1013A00015685B88AB4202D11160002030BD491C3A
:1013B0008142F3D3052030BDB4000020002100F0AD
:1013C00009B8012100F010B808B56A46FEF755FFCC
:1013D000009808BD08B56A46FEF735FF08BD08B598
:1013E0006A46FEF717FF08BD08B56A46FEF71EFFFE
:1013F000009808BD08B56A46FEF74CFF009808BD86
:1014000070B5044600252846FFF772FB2168626824
:10141000086890420ED9401E08600178A38AE268ED
:1014200001FB0325227A2168101AC0B20A79824290
:1014300000D208710020FFF75DFB284670BD70B533
:1014400005460C460020FFF753FBE868A98A201ADE
:10145000B0FBF1F12A681068431C13600170BDE80D
:1014600070400020FFF746BB10B530B1017A4268EA
:101470000368891AC9B21A6006E00E2010BD03681D
:101480001A68541C1C601170491EC9B2F7D200685A
:1014900000210171084610BDC20800F007030120B9
:1014A000895C98400840704710B5C20800F00703F7
:1014B000885C01249C402043885410BD00F180408A
:1014C0000068002800D00120704708B500F1804076
:1014D000002101600068009008BD000070B50A4C52
:1014E000207808B185250CE00020A06060602061B4
:1014F000E060064800F0B0FD054600F097FD0120D1
:101500002070284670BD0000DC010020850D000021
:1015100070B5104D0446A87838B114B16168012047
:1015200088470020FFF7E4FA0CE00020FFF7E0FA1C
:1015300024B1084821461030FFF7F4FDE86808B9E7
:1015400000F09AFDE868401CE860BDE870400020AB
:10155000FFF7D0BADC010020F0B505460478154845
:1015600089B0164640F82420124A0869121DA2F1DB
:10157000080742F82400487F385520226846FEF7C5
:10158000D1FE04942878385C48B10EB10A4A00E0D4
:1015900000226946281D01F067F809B0F0BD0EB1C0
:1015A000064A00E00022694605F10C0000F02EFF1B
:1015B000F3E7000004000020C12F00000D2E000002
:1015C0000FB408B50399002904D004AA00926A4612
:1015D00000F00FF801B05DF814FB10B58268044606
:1015E000002A05D0D4E90403216898470020A060B0
:1015F00010BD2DE9FC4791460C00804676D014F8CA
:10160000011B39B125290ED04046FFF753FB207846
:101610000028F4D198F80C00002867D04046BDE8B7
:10162000FC47FFF7DABF0020012221782B291BD0CD
:101630002D2902D0302908D102E040F0010001E05C
:1016400040F00200641C002AEFD100252A290ED0A8
:101650002178A1F130020A2A11D205EB850201EBB3
:101660004205641C303DF1E740F00400EAE7D9F898
:1016700000100B1DC9F800300968641C0D44217866
:1016800000232E290BD114F8011FA1F130020A2AE0
:1016900005D203EB830201EB4203303BF3E76C29F5
:1016A0000DD068290BD0692921D00BDC252918D051
:1016B000582931D063290ED0642915D117E014F8C8
:1016C000011FECE7702969D0732932D075291BD02E
:1016D000782909D120E0D9F80000011DC9F80010CF
:1016E00001784046FFF7E6FA641C90E76CE0D9F811
:1016F00000100A1DC9F800200968CDE900500A222F
:101700004046FFF755FCEFE7D9F800100A1DC9F86D
:10171000002009680A2206E0D9F800100A1DC9F85D
:10172000002009681022CDE90050404601F0DAFCA3
:10173000DAE7D9F8001000270A1DC9F800200E6862
:10174000C00705D112E04046761C7F1CFFF7B2FAB5
:1017500031780029F7D104E0202140466D1EFFF7C3
:10176000A9FABD42C0D9002DF6D1BDE74EB1304631
:10177000FEF7FCFD074604E0202140466D1EFFF702
:1017800099FABD4206D9002DF6D103E04046761CF9
:10179000FFF790FA31780029F8D1A5E7D9F80000D1
:1017A000011DC9F80010056830214046FFF782FA94
:1017B00078214046FFF77EFA08200021CDE900019C
:1017C000034610222946B0E7BDE8FC8770B541EA20
:1017D0004201DDE904564FF0A04441EA830141EAA9
:1017E000052104EB800041EA0641C0F8001770BDF6
:1017F00070B541EA4201DDE904564FF0A04441EAE8
:10180000830141EA052104EB800041EA0641C0F86A
:10181000001770BD70B541EA4201DDE904564FF092
:10182000A04441EA830141EA052104EB800041EA3A
:101830000641C0F8001770BD1CB5002100910B4691
:1018400001220191FFF7C2FF1CBD1CB500210091D0
:101850000B4601220191FFF7CBFF1CBD1CB50022F6
:101860000B46009211460192FFF7B0FF1CBD1CB55C
:1018700000220B46009211460192FFF7B9FF1CBDF2
:101880001CB5002100910B46012201911146FFF782
:101890009DFF1CBD1CB5002100910B46012201914A
:1018A0001146FFF7A5FF1CBD4FF0A04202EB8000E0
:1018B000D0F8002722F44032C0F80027D0F80027E3
:1018C00042EA0141C0F800177047000018B5084B04
:1018D0006C4601441B68009306E000BF54F82030BA
:1018E000D3F81035401C08C28142F7D818BD00005B
:1018F00074320000034908B5084400210160006803
:10190000009008BD0060004002494058012800D006
:10191000002070470060004030B5124B01460020A7
:10192000D3F81044224609E0157A854205D1401CBF
:101930000A28F7DB4FF0FF3030BD5268002AF3D1A0
:10194000421CF9D00872D3F810242AB152684A60B8
:10195000D3F81024516030BD0022C3F810144A603F
:1019600030BD0000FC030020F0B595B01C461546C4
:101970000F4608461A9E00F011FB182109A8FEF731
:10198000EAFC0E96CDE909540023082203A9384643
:1019900000F019FB05980690BDF81000ADF81C008A
:1019A000BDF81200ADF81E0000208DF8210003984C
:1019B000082600F00300012802D0022818D032E0E7
:1019C00003983346850AC0F3C2008DF820000398BF
:1019D0000FA9C0F38314A200384600F0F4FA09A856
:1019E000009006AB22460FA9284600F033FA1AE011
:1019F0000398840DC0F3C2008DF82000082C01D29A
:101A0000254600E0082533462A460FA9384600F04F
:101A1000DAFA2E44641B09AB06AA29460FA800F087
:101A20006BF9002CEAD1384600F0BEFA15B0F0BDD3
:101A30007047012001F008BA084810B50178084A3B
:101A4000515C19B1001D00F09BFE02E00C3000F06B
:101A5000A9FDBDE81040002001F0F6B938000020D3
:101A60000000002008B5034A00924023024AFFF715
:101A70007BFF08BDE9290000FC0200200A4A012979
:101A800002EBC00007D0022907D0032907D00429A0
:101A900007D000207047022070470420704700796B
:101AA00070474079704700002834000010B5FFF7F8
:101AB000C0FF04210348FFF72FFF024901204872AD
:101AC00010BD00004C0000202DE9F0478CB0FFF75E
:101AD00001F918B100200CB0BDE8F087784C002067
:101AE000C4F81804BFF34F8F60680290A5684FF0E8
:101AF0000008284004EB800008E021680298814239
:101B000001D86160E6E7284004EB80000C3002A9B0
:101B1000FFF7E2FA0028F0D103AB029901EA0502CF
:101B200004EB8202491CD26843F82020401C029139
:101B30000228F2D3039800F00300022802D0012803
:101B40004ED0A5E003985022810D8946B2EB905FFC
:101B500000D850210E4666F39F5003900831594833
:101B600000F0D3F9070078D000F018FA43460822B5
:101B700003A9384600F02DFA029908F1080A294015
:101B8000681A8000001D864223D94D4D0C3530B1B6
:101B9000C2B204EB8101301A90460C3104E02946B0
:101BA000F2B2002590462846C6B25346384600F0A9
:101BB00010FA0AEB08032DB1324629464FEA070016
:101BC00000F007FA029909F1030001EB900002907E
:101BD0003AE004EB81015346324638460C31EFE7D8
:101BE0000398C0F38311062900D3062161F38910FD
:101BF0000390C0F38310801C8100324800F085F907
:101C0000070045D000F0CAF94346082203A9384628
:101C100000F0DFF908F1080800260FE002984346BB
:101C200000EA0501401C04EB8101029004223846C1
:101C30000C3100F0CEF908F10408761C0398C0F3CB
:101C40008310B042EAD847B1D4F81054D4F818043D
:101C500068B1384600F0A8F92CE019E0687A01284C
:101C600004D12A6828463946126890476D68002DCD
:101C7000F4D1384600F098F90020FEF739FFD4F887
:101C8000180408B9029860600020FEF733FF11E0E5
:101C9000D4F8104404E021682046896888476468C5
:101CA000002CF8D108480221008801EB004007A170
:101CB00000F016F8FFF70EF880F001000BE70000C7
:101CC000FC03002070340000D40000204261636BEC
:101CD000656E647320666C7573686564000000004F
:101CE00000231A4600F0A0BE1CB5CDE90023022354
:101CF0006A4600F099FE1CBD2DE9F0470E4680466D
:101D00001C46924608293ED894F80C900020207377
:101D10001946104600F0C2FD0025B54206D218F85B
:101D200005201AA12046FFF74BFC03E019A120462D
:101D3000FFF746FC6D1C082DEFD317A12046FFF7D7
:101D40003FFC0025B54210D218F80570FEF7E6FA00
:101D50000068C05D10F03E0F01D03A4600E02E2230
:101D60000EA12046FFF72CFC03E00DA12046FFF753
:101D700027FC6D1C082DE5D301222146504600F0BA
:101D80006FFD84F80C90BDE8F0870000202530320C
:101D900078000000202020007C0000002563000067
:101DA00020000000104810B5FF2181600021016073
:101DB0004160C0F81814C0F8141480F820140B48BF
:101DC00000F0F0F800280DD109480A490A4B401AE2
:101DD000C108002003E000BF23F82000401C884217
:101DE000FAD3002010BD0000FC0300207034000076
:101DF0007034000028340000B40000200248034979
:101E0000401AC008704700007034000028340000F9
:101E100013B56846FFF7BAFA08B100201CBD0248A6
:101E2000009950F831001CBD2834000070B50848F6
:101E30000125D0F8104480F8205405E0657221682F
:101E40002046496888476468002CF7D170BD0000BF
:101E5000FC0300202DE9FF4781460C9D00200C4625
:101E60002F7B2873984616462946184600F016FD23
:101E7000072E42D2DFE806F004090F161F2A3600AB
:101E800049462846FFF79CFB37E04946284622682A
:101E9000FFF796FB31E0D4E9002349462846FFF7D7
:101EA0008FFB2AE0A0680090D4E900234946284629
:101EB000FFF786FB21E0D4E90201CDE90001D4E976
:101EC000002349462846FFF77BFB16E004F1080093
:101ED00007C88DE80700D4E9002349462846FFF7E4
:101EE0006FFB0AE004F108000FC88DE80F00D4E989
:101EF000002349462846FFF763FB00222946404657
:101F000000F0AEFC2F73BDE8FF872DE9F041858A14
:101F100080462D1F4819C01CB0FBF5F0C6B24046E4
:101F2000FFF76EFA041E19D00020207101206071A5
:101F3000E58000272546761EC4F800800BE0404669
:101F4000FFF75EFA60B16179491C6171286005464E
:101F50007F1CC0F80080B742F1D32046BDE8F08175
:101F6000204600F002F80020F8E72DE9F04145791D
:101F700001466B1E002201E00968521C9A42FBD305
:101F80000F680146002605E038460C68FFF757FA4F
:101F90002146761CAE42F7D3BDE8F0810121001D39
:101FA000FFF712BAFFF760BA10B504460121001D11
:101FB000FFF720FA10F0FF0F04D12046BDE81040D3
:101FC000FFF7D3BF10BD38B501240094FFF7A2F985
:101FD00038BD38B500240094FFF79CF938BD40584F
:101FE000002800D00120704708B500224250405818
:101FF000009008BD4058002800D00120704708B567
:10200000002242504058009008BDD0F80403084018
:1020100000D0012070474058002800D001207047B0
:1020200008B5002242504058009008BD084800689A
:10203000012110F0010F08D14FF0E020E02280F8DC
:102040000024C0F88012C0F80011024801607047F7
:1020500000E100E0180500400649024600200B7927
:102060000BB1852070470A6001220A7100224A7173
:10207000704700001400002070B54FF48270FFF725
:1020800024FA02204107C1F804030B4B196841F000
:10209000807018600948026842F0010404604468D6
:1020A0004FF40A554668361BAE42FBD302601960F6
:1020B00003490120086070BDFCED00E0001000E065
:1020C00008000040002802D00149800108477047FD
:1020D000913200002DE9F0418846054600F0A8FB4A
:1020E000234E002828461AD0FEF730FE304490F8E0
:1020F0003C008009032802D001280ED007E04FF0F1
:10210000A040D0F81005E84010F0010F05D00321E1
:102110002846BDE8F041FFF7C7BB0221F8E700F011
:1021200093FB002822D02846FEF710FE04464FF409
:10213000807000EB84000F4F81B207EB8400D0F871
:10214000102542F00102C0F810250846FFF7D2FB27
:10215000B8F1000F0AD02846FEF7F8FD56F8200027
:10216000002803D00120A040C7F80403BDE8F08197
:1021700090010020006000402DE9FC41DFF8BC80A8
:10218000044608EB0400002790F924001346C0170A
:102190000E46401C01D008274CE0B0781946C0F329
:1021A00040022046FEF7AEFD0546401C41D0B07807
:1021B000410719D4C0070AD04FF0A04000EB8401BA
:1021C000D1F8000720F00200C1F8000707E0002165
:1021D0007378204600910A460191FFF71BFB1749CF
:1021E00020464531FFF760F9B078800718D51448CC
:1021F000317800EB8500D0F81025124B1A40C0F85A
:1022000010254FF4F8524FF4403302EA042203EA57
:1022100001410A43D0F810150A43C0F8102509E01F
:1022200008EB0500327810F83C1F41EA821101707A
:1022300000E004273846BDE8FC8100009001002042
:1022400000600040FFE0FCFF70B5184D95F84900B4
:1022500008B1082070BD0020411E2A18401CC0B2E1
:1022600082F824102028F8D300242046FEF73CFDF5
:10227000641CE4B2092CF8D300240D4945F8454FFD
:10228000E02081F8000401264020891FC1F8800267
:10229000C1F800014FF4BE70FFF72CFB0549F007B1
:1022A000C1F804032E71204670BD0000900100208B
:1022B00006E000E000600040034890F84900002874
:1022C00000D0012070470000900100202DE9FC4162
:1022D00004462B480F462044002590F92410491C41
:1022E00001D0082546E0B978002651B3012200212B
:1022F0002046FEF707FD411C21D0830021483A7893
:1023000018447978D0F81035DFF87CC003EA0C0364
:10231000C0F81035D0F810354FF4F85C0CEA042CF6
:1023200043EA0C034FF4403C0CEA02424FF4801C99
:102330000CEA01510A431343C0F8103504E00425A8
:1023400018E0FE2180F824107A780120A0404FF098
:10235000A041012A11D0C1F80C05012220460096A7
:10236000002311460196FFF755FA054920464531ED
:10237000FFF79AF82846BDE8FC81C1F80805ECE7AC
:102380009001002000600040FFE0ECFF4FF0A04211
:10239000D2F804350121814021EA0300C2F8080582
:1023A0001940C2F80C1570470121B1EB507F01D1E3
:1023B000012070470020704770B50D4600F0BAFA52
:1023C00004000FD00020FEF793FB207920B10020FD
:1023D000FEF790FB112070BD0120256020710020C8
:1023E000FEF788FB002070BD10B500F0A3FA0028AE
:1023F00002D000210160017110BD000001490248B6
:1024000000F04ABD40010020002000402DE9F041CD
:102410000546007916460F4600EB40012D4A01EBB8
:10242000C00102EB810494F82A1011B10820BDE824
:10243000F081294951F820102868FFF7BDFF08B145
:102440001120F4E739462846FEF768FB66603869D4
:10245000206030004FF001062FD03F7F4FF48E7187
:102460002868FFF7CCFD4FF4A2712868FFF7C7FD7D
:1024700028681A49C0F8041328684FEA4711000B6E
:1024800040B2002806DA00F00F0000F1E02080F8EA
:10249000141D03E000F1E02080F800142868000B10
:1024A00040B200F01F0206FA02F14009800000F17C
:1024B000E020C0F88012C0F8001128680421C0F89C
:1024C00000150020A061E06184F8290044F8140F91
:1024D000A675ACE7400100206C32000080000200CD
:1024E0002DE9F047054600790B4600EB400101EB72
:1024F000C000234901EB8004284600F043F810B1E6
:102500001120BDE8F0874FF00008C4F82080A360D8
:10251000626184F828804FF48E76474631462868F9
:10252000FFF76DFD28684FF00109C0F808902146BB
:10253000286800F04DFC606800BBD5F800A00EE0F4
:1025400094F8280008B10F2716E031465046FFF7EF
:1025500051FD0028F4D02146504600F039FC216A94
:1025600060698142F1D331462868FFF743FD0028B6
:10257000F9D02868C0F80C90C4F814803846C0E739
:1025800040010020007900EB400101EBC00004494C
:1025900001EB80004069002800D001207047000056
:1025A000400100202DE9F047044600794FF0000972
:1025B00000EB400101EBC000254901EB80072068DA
:1025C000C0F80095786880B120682249C0F80813E7
:1025D00020680121000B40B200F01F029140400929
:1025E000800000F1E020C0F880112068D0F80C25B0
:1025F000D0F81485D0F80865D0F810554FF0FF31A9
:10260000C0F81415C0F80C152068C0F80815C0F8FB
:102610001015501C02D01046FFF70EF9B8F1FF3F1D
:1026200002D04046FFF708F9681C02D02846FFF7A1
:1026300003F9701C02D03046FFF7FEF82068FFF760
:10264000D3FE87F82A90C7F80490BDE8F087000011
:1026500040010020840202000149024800F0C8BC89
:102660006C010020002000402DE9F041054616468F
:1026700000790F46154A00EBC00102EB810494F883
:10268000201011B10820BDE8F081114951F8201047
:102690002868FFF791FE08B11120F4E73946284673
:1026A000FEF780FA6660386920601EB1397F2846DF
:1026B000FEF7D2FC28680821C0F800150020A061B0
:1026C000E0610121606184F82010DCE76C010020EA
:1026D000703200002DE9F04704460E46007920498B
:1026E00000EBC00001EB800517463046FFF75CFEAB
:1026F00030B1204600F036F820B11120BDE8F08757
:102700001020FBE76F61AE604FF4907600273146F2
:102710002068FFF785FC4FF4AC7841462068FFF74E
:102720007FFC2068AA686969C0F84425C0F848158C
:10273000206801218160686878B9B14649462068FF
:10274000FFF769FC064641462068FFF764FC064334
:10275000F4D000B10F27002068613846CEE70000B2
:102760006C0100200079054900EBC00001EB8000FE
:102770004069002800D00120704700006C01002053
:102780002DE9F04704460079274900EBC00001EB32
:10279000800720684FF00009C0F80095786880B184
:1027A00020682249C0F8081320680121000B40B2BC
:1027B00000F01F0291404009800000F1E020C0F8C5
:1027C00080112068D0F80C25D0F81485D0F8086561
:1027D000D0F810554FF0FF31C0F80C15C0F81415A3
:1027E0002068C0F80815C0F81015501C02D010461B
:1027F000FFF72BF8B8F1FF3F02D04046FFF725F86E
:10280000681C02D02846FFF720F8701C02D0304622
:10281000FFF71BF82068FFF7E7FD87F82090C7F85F
:102820000490BDE8F08700006C0100201003020056
:102830000449084490F92400082801DB012070476E
:1028400000207047900100200449084490F92400BA
:10285000082801D201207047002070479001002015
:1028600010B50C46017A052908D0407A38B10848DD
:1028700008A102682046FEF7A3FE00E01AB106A1F7
:102880002046FEF79DFE2046BDE81040FEF7A5BE9F
:1028900084000020257300000D0A000038B5C388AD
:1028A0000D46044633B114A0009015A216A1284687
:1028B000FEF786FE217A05291CD0607A48B1A088EF
:1028C000FFF7DCF8164951F8202016A12846FEF73C
:1028D00077FEA0880021FFF79BFA03461049207A73
:1028E000143951F8202001B02846BDE830400EA12F
:1028F000FEF766BE38BD00001B5B306D00000000B7
:102900001B5B313B33316D0025734C6F6773206463
:10291000726F70706564202825642925730D0A0084
:1029200084000020257300003C25733E2025733A67
:10293000200000000349884201D10348704700206D
:1029400070470000002000400C00002070B50126F8
:1029500070044FF0E0210025C1F88001084C4010C0
:10296000C4F84803C4F8080366602F20FFF7AAFBE9
:10297000A660044C2F20A560FFF7A4FBA57070BDD6
:10298000001001402000002070B5054688690C4603
:1029900000284FF4847128460AD0FFF730FBD5F8A1
:1029A0001805626AE1688854606A401C606270BD04
:1029B000FFF725FBD5F8180570BD1FB501238DF86D
:1029C0000030CDE90121D0E90012684690471FBDD3
:1029D0001FB501238DF800308DF808100192D0E961
:1029E0000012684690471FBD70B50D4C0020D2B252
:1029F0002070201D0B4D0378EB5C1BB1001DFFF711
:102A000069FE02E00C30FFF76BFD08B1FDF7D6FF61
:102A10006078002802D021780029FAD070BD00002B
:102A200034000020000000202DE9F84F204D924690
:102A3000894606469846012269461846AF68FEF761
:102A4000F5F858B3009800210446801C09E000BF47
:102A500000EA07035AF8212005EB8303401C491CB8
:102A6000DA604145F4D34FEA164AFEF709FA4AEA1A
:102A70000041601C384005EB80003C4005EB8402BF
:102A8000C160D06866F3C50068F3891069F39F20C0
:102A900020F00300401C20F00400D06095F82004D2
:102AA00002E000BFFFF710F80028FBD1BDE8F88F67
:102AB000FC0300202DE9F84F1D4C00256846D4E9A1
:102AC00001A6FEF7E7F9002738B30023009A6168F2
:102AD0001CE0D1F800C00846944503D9ACEB0202D3
:102AE0000A6015E0A2EB0C0263440760D0F80CC04A
:102AF000C1698146BCF1000F08D006EB030828F03D
:102B00007F48C0E9018CC9F81C5005460029E0D176
:102B100028466160FEF712FB03E02846FEF70EFB35
:102B200010B15046FEF73CF9E770BDE8F88F0000A1
:102B3000200000200D4B10B5596831B102680C68B7
:102B4000A24204D8A21A0A60C161586010BD0B46A7
:102B500003E00B46C969121B21B10C689442F8D3FB
:102B6000A41A0C600260C161D86110BD2000002071
:102B70002DE9F041144E77683D462C4603E084422F
:102B800004D02546E469002CF9D11BE0D4B1A5425C
:102B90000BD1F869706040B90C49012088600021B0
:102BA000B160F0702F20FFF78DFA2168E069E861CD
:102BB00010B10268114401607068874202D00120A0
:102BC000BDE8F0810020FBE720000020001001405C
:102BD000F8B5064600240D462046FDF789FF6846F5
:102BE00000F02CFB68B10570084946609DF80000B4
:102BF00048700020FDF77EFF1420FDF791FC204671
:102C0000F8BD04240020FDF775FFF8E7F00100206F
:102C10002DE9F041194D6C68002C2CD01848002784
:102C20000068A968B846401A20F07F462068B04284
:102C30000CD82146361A0744E469087C20B181F893
:102C40001080886949698847002CEFD12978687815
:102C5000814206D1401CC0B26870022801D185F8BB
:102C60000180064869780C3040F82170BDE8F041D9
:102C70001420FDF755BCBDE8F081000020000020C5
:102C8000041501402DE9F04F0D464FF4927887B0BE
:102C900004464146FFF7A3F94FF0020B01264FF41B
:102CA000827740B141462046FFF79EF939462046DB
:102CB000FFF795F9C0B34FF482712046FFF78FF903
:102CC000DFF808810100EA4605F10C094FF0000722
:102CD0003ED04FF482712046FFF786F91422494610
:102CE0000AF10400FDF71EFB95F82E0058B1287B71
:102CF000012827D0D4F84C050290287B022824D044
:102D0000D4F84C0503904FF4B0712046FFF76CF9EE
:102D10004FF4AE712046FFF767F995F83000A8B37D
:102D200095F82E0090BB37E0FFE7A868C4F80803C9
:102D3000C5F808B0A868C4F804032662666107B045
:102D4000BDE8F08FD4F83C05D6E7D4F83C05D9E7C8
:102D50004FF4A4712046FFF747F9287B68B14FF480
:102D60000070C4F80002801CA860C4F80883A8683A
:102D7000C4F80403A6602662E1E7142249460AF17A
:102D80000400FDF7CFFA95F8300028B90020C4F808
:102D90000002AF60C4F80883D4F8C404C4F8C404C3
:102DA000810702D58DF8006006E0400702D58DF856
:102DB00000B001E08DF8007095F8300008B985F892
:102DC0002F70D5E9002168469047B8E702029C01C0
:102DD00070B50C4605464FF48E71FFF710F9216A65
:102DE000A068415C206A401C2062C5F81C1570BDBB
:102DF0001FB500228DF80020029181680191426187
:102E0000D0E90012684690471FBD00001FB50A4672
:102E100001788DF8001041680191017A8DF8081051
:102E2000C0680390044850F82210001F50F8222078
:102E3000684690471FBD000008000020014901209E
:102E4000087070473400002010B588B00446202276
:102E50000E496846FDF766FA06200090C01F0190F3
:102E6000029003904FF0EB7006900CB1084A00E01E
:102E7000002269460748FEF76FFB08B1FDF79EFD8B
:102E80000448001F447008B010BD0000A4320000C8
:102E90003D2E0000380000202DE9FF470C46054676
:102EA0004FF40071FFF7B1F801274FF401780026C5
:102EB00018B34FF4927949462846FFF79BF8E0B1E2
:102EC00049462846FFF79BF8C5F8088394F829007F
:102ED00000B96F6002208DF80000D5F88004C5F8B5
:102EE00080040390A0690290E0680190A661E66109
:102EF000D4E900126846904728E004212846FFF7ED
:102F000084F818B34FF484712846FFF773F8E8B1DA
:102F100021462846FFF738FD616AA069884215D12D
:102F2000E06938B1E268616AA0612069E6616662C1
:102F3000E06008E094F8290000B96F60C5F80883E4
:102F4000A661E268616A2046FFF737FD4FF48E788C
:102F500041462846FFF74EF878B1206A61698842F9
:102F600002D294F8280020B341462846FFF747F8DC
:102F7000616911B12046FFF73BFF4FF4A27841464B
:102F80002846FFF737F8002818D041462846FFF7B3
:102F900036F894F8290000B12F60A06900280DD000
:102FA000A661E268616A04B02046BDE8F047FFF719
:102FB00004BD21462846FFF70BFFDEE7BDE8FF878B
:102FC0001FB50A4601788DF8001041680191017A19
:102FD0008DF80810C0680390044850F82210001FB4
:102FE00050F82220684690471FBD000008000020CE
:102FF0002DE9FF410C464FF4927705463946FFF71D
:103000000AF80026C0B139462846FFF709F8022021
:103010008DF80000D5F88004C5F880040390D5F839
:103020003C058DF80800E0680190A661E661D4E9EE
:1030300000126846904723E04FF4887739462846C7
:10304000FEF7E9FFE0B139462846FEF7E9FFD5F87B
:103050003C15A069884213D1E06960B1E268D5F8F7
:10306000000220F02000C5F80002E069A06120699C
:10307000E661E06001E0A661E2682046FFF7A8FC97
:103080004FF4A27739462846FEF7C5FF60B13946AE
:103090002846FEF7C5FFA06930B1A661D5F83C15FA
:1030A0002046E268FFF794FC4FF4907739462846B3
:1030B000FEF7B1FF002813D039462846FEF7B0FFCF
:1030C000606900280CD0D5F84C058DF800608DF8AB
:1030D0000800A06801906661D4E900126846904734
:1030E000BDE8FF812DE9F05F8346DDE90A4A994694
:1030F00090460D460846012703E000BFB0FBF8F0FC
:103100007F1C4045FAD2B94500D94F465FEACA70E4
:1031100012D18CB15FEA8A7002D5B9F1000F01D0EB
:10312000202607E0302605E031465846641EFDF7AC
:10313000C1FD0CB1A742F7D35FF00106B9F1010F51
:1031400002D9A9F1010903E0B5FBF6F0404502D32D
:1031500006FB08F6F2E7DFF83C9000BFB5FBF6F09F
:1031600000FB165519F800105846FDF7A3FDB6FBF5
:10317000F8F6002EF2D15FEACA7009D0002C07D011
:10318000A74205D220215846641EFDF793FDF5E7BE
:10319000BDE8F09F783200007CB5FFF755F808B124
:1031A000FDF70CFC0020019001A91120FFF78EF81B
:1031B00008B1FDF703FCFFF77FF820B9FFF744F8EB
:1031C00008B1FDF7FBFB144E144D002405EBC400C1
:1031D0003168009181788DF801100078104A6946B5
:1031E000FEF7CAFF08B1FDF7E9FB15F8340001212D
:1031F000FEF770FF641EE9D207480A4A0021001D4D
:10320000FDF7E8FB08480321008801EB004007A117
:10321000FEF766FD00207CBDC4320000A80000203F
:10322000310F00004D0E0000D40000204750494FE0
:103230004520737461727465642E00000A494A78EF
:103240008B78521CD2B2934200D100220B78934269
:1032500001D1002070470270487800EB400001EB7C
:10326000C000001D70470000F0010020FD23000099
:1032700059260000000000503031323334353637E3
:103280003839414243444546000000000000000038
:103290000338FDD870470000651A0000391A000095
:1032A000311A0000FFFFFFFFFFFFFFFFFFFFFFFFDF
:1032B000FFFFFFFF00000000000000000000D6013B
:1032C00007010000030000002008002000404040EB
:1032D00040404040404041414141414040404040E9
:1032E0004040404040404040404040404005020295
:1032F0000202020202020202020202020220202054
:1033000020202020202020020202020202029090AF
:1033100090909090101010101010101010101010AD
:103320001010101010101010020202020202888801
:10333000888888880808080808080808080808080D
:1033400008080808080808080202020240000000F5
:10335000CD3200007761726E696E670064656275D8
:10336000670000001B5B313B33306D001B5B306D31
:10337000000000001B5B313B33316D001B5B313BB8
:1033800033326D001B5B313B33336D001B5B313BD4
:1033900033346D001B5B313B33356D001B5B313BC0
:1033A00033366D001B5B313B33376D00696E666FE2
:1033B000000000006572726F7200000050525300EE
:1033C0005457494D00000000554152540000000080
:1033D00055415254450000004750494F54450000A4
:1033E000636C6F636B000000434C4F434B00000065
:1033F00062616C6C6F632E6C6F675F6D656D706F73
:103400006F6C0000617070008834000000000020C4
:10341000D80000002009000060350000D80000201E
:103420006827000030090000BC33000000000000E5
:10343000C033000000000000C8330000000000009E
:10344000D033000000000000D8330000000000006E
:10345000E033000000000000E8330000000000003E
:10346000F0330000000000030434000000000303F8
:103470006000002058000020600000203C03002075
:10348000D000002018000000000000000000000034
:10349000000000000000000000000000000000002C
:1034A000000000000000000000000000000000001C
:1034B000000000000000000000000000000000000C
:1034C000000000000020004000000000002000403C
:1034D0000000000098320000000000000000000022
:1034E00000000000000000000000000000000000DC
:1034F000000000000000000000000000B4330000E5
:1035000054330000AC3300005C3300006C33000027
:1035100064330000743300007C3300008433000007
:103520008C330000943300009C330000A43300006F
:103530000D000300D50E00000090D0030000000035
:10354000000000000000000000000000000000007B
:10355000000000000000000000000000000000006B
:0400000500000201F4
:00000001FF
